{
  "contractName": "Ecommerce_mob",
  "abi": [
    {
      "inputs": [],
      "stateMutability": "nonpayable",
      "type": "constructor"
    },
    {
      "inputs": [
        {
          "internalType": "uint256",
          "name": "",
          "type": "uint256"
        }
      ],
      "name": "orderBy",
      "outputs": [
        {
          "internalType": "address",
          "name": "",
          "type": "address"
        }
      ],
      "stateMutability": "view",
      "type": "function",
      "constant": true
    },
    {
      "inputs": [],
      "name": "owner",
      "outputs": [
        {
          "internalType": "address payable",
          "name": "",
          "type": "address"
        }
      ],
      "stateMutability": "view",
      "type": "function",
      "constant": true
    },
    {
      "inputs": [
        {
          "internalType": "string",
          "name": "",
          "type": "string"
        }
      ],
      "name": "products",
      "outputs": [
        {
          "internalType": "string",
          "name": "productId",
          "type": "string"
        },
        {
          "internalType": "string",
          "name": "productName",
          "type": "string"
        },
        {
          "internalType": "uint256",
          "name": "price",
          "type": "uint256"
        },
        {
          "internalType": "bool",
          "name": "isActive",
          "type": "bool"
        }
      ],
      "stateMutability": "view",
      "type": "function",
      "constant": true
    },
    {
      "inputs": [
        {
          "internalType": "address",
          "name": "",
          "type": "address"
        },
        {
          "internalType": "uint256",
          "name": "",
          "type": "uint256"
        }
      ],
      "name": "userOrders",
      "outputs": [
        {
          "internalType": "string",
          "name": "productId",
          "type": "string"
        },
        {
          "internalType": "string",
          "name": "orderStatus",
          "type": "string"
        },
        {
          "internalType": "uint256",
          "name": "purchaseId",
          "type": "uint256"
        }
      ],
      "stateMutability": "view",
      "type": "function",
      "constant": true
    },
    {
      "inputs": [
        {
          "internalType": "address",
          "name": "",
          "type": "address"
        }
      ],
      "name": "users",
      "outputs": [
        {
          "internalType": "string",
          "name": "name",
          "type": "string"
        },
        {
          "internalType": "string",
          "name": "email",
          "type": "string"
        },
        {
          "internalType": "string",
          "name": "deliveryAddress",
          "type": "string"
        },
        {
          "internalType": "bool",
          "name": "isCreated",
          "type": "bool"
        }
      ],
      "stateMutability": "view",
      "type": "function",
      "constant": true
    },
    {
      "inputs": [
        {
          "internalType": "string",
          "name": "_productId",
          "type": "string"
        },
        {
          "internalType": "string",
          "name": "_productName",
          "type": "string"
        },
        {
          "internalType": "uint256",
          "name": "_price",
          "type": "uint256"
        }
      ],
      "name": "createProduct",
      "outputs": [],
      "stateMutability": "nonpayable",
      "type": "function"
    },
    {
      "inputs": [],
      "name": "withdraw",
      "outputs": [],
      "stateMutability": "nonpayable",
      "type": "function"
    },
    {
      "inputs": [
        {
          "internalType": "string",
          "name": "_name",
          "type": "string"
        },
        {
          "internalType": "string",
          "name": "_email",
          "type": "string"
        },
        {
          "internalType": "string",
          "name": "_deliveryAddress",
          "type": "string"
        }
      ],
      "name": "createAccount",
      "outputs": [],
      "stateMutability": "nonpayable",
      "type": "function"
    },
    {
      "inputs": [
        {
          "internalType": "string",
          "name": "_name",
          "type": "string"
        },
        {
          "internalType": "string",
          "name": "_email",
          "type": "string"
        },
        {
          "internalType": "string",
          "name": "_deliveryAddress",
          "type": "string"
        }
      ],
      "name": "changeDetails",
      "outputs": [],
      "stateMutability": "nonpayable",
      "type": "function"
    },
    {
      "inputs": [],
      "name": "get",
      "outputs": [
        {
          "internalType": "bool",
          "name": "",
          "type": "bool"
        }
      ],
      "stateMutability": "view",
      "type": "function",
      "constant": true
    },
    {
      "inputs": [
        {
          "internalType": "uint256",
          "name": "price",
          "type": "uint256"
        }
      ],
      "name": "buyProduct",
      "outputs": [],
      "stateMutability": "payable",
      "type": "function",
      "payable": true
    },
    {
      "inputs": [
        {
          "internalType": "uint256",
          "name": "_purchaseId",
          "type": "uint256"
        }
      ],
      "name": "cancelOrder",
      "outputs": [],
      "stateMutability": "nonpayable",
      "type": "function"
    }
  ],
  "bytecode": "0x6080604052600060015534801561001557600080fd5b50336000806101000a81548173ffffffffffffffffffffffffffffffffffffffff021916908373ffffffffffffffffffffffffffffffffffffffff160217905550611981806100656000396000f3fe6080604052600436106100a75760003560e01c8063856652e911610064578063856652e9146101bd5780638642269e146101fc5780638da5cb5b14610218578063a142220914610243578063a87430ba1461026c578063bc53c0c4146102ac576100a7565b80630186a423146100ac5780631d4f01c8146100ec5780632e8abd4e146101155780633ccfd60b14610152578063514fcac7146101695780636d4ce63c14610192575b600080fd5b3480156100b857600080fd5b506100d360048036038101906100ce9190611324565b6102d5565b6040516100e39493929190611429565b60405180910390f35b3480156100f857600080fd5b50610113600480360381019061010e919061147c565b610438565b005b34801561012157600080fd5b5061013c6004803603810190610137919061154f565b6105f6565b60405161014991906115bd565b60405180910390f35b34801561015e57600080fd5b50610167610629565b005b34801561017557600080fd5b50610190600480360381019061018b919061154f565b6106ea565b005b34801561019e57600080fd5b506101a761088c565b6040516101b491906115d8565b60405180910390f35b3480156101c957600080fd5b506101e460048036038101906101df919061161f565b6108e3565b6040516101f39392919061165f565b60405180910390f35b6102166004803603810190610211919061154f565b610a3a565b005b34801561022457600080fd5b5061022d610ab5565b60405161023a91906116c5565b60405180910390f35b34801561024f57600080fd5b5061026a600480360381019061026591906116e0565b610ad9565b005b34801561027857600080fd5b50610293600480360381019061028e919061176b565b610be5565b6040516102a39493929190611798565b60405180910390f35b3480156102b857600080fd5b506102d360048036038101906102ce919061147c565b610dba565b005b60028180516020810182018051848252602083016020850120818352809550505050505060009150905080600001805461030e90611821565b80601f016020809104026020016040519081016040528092919081815260200182805461033a90611821565b80156103875780601f1061035c57610100808354040283529160200191610387565b820191906000526020600020905b81548152906001019060200180831161036a57829003601f168201915b50505050509080600101805461039c90611821565b80601f01602080910402602001604051908101604052809291908181526020018280546103c890611821565b80156104155780601f106103ea57610100808354040283529160200191610415565b820191906000526020600020905b8154815290600101906020018083116103f857829003601f168201915b5050505050908060020154908060030160009054906101000a900460ff16905084565b600360003373ffffffffffffffffffffffffffffffffffffffff1673ffffffffffffffffffffffffffffffffffffffff16815260200190815260200160002060030160009054906101000a900460ff1661049157600080fd5b82600360003373ffffffffffffffffffffffffffffffffffffffff1673ffffffffffffffffffffffffffffffffffffffff16815260200190815260200160002060000190805190602001906104e7929190610f79565b5081600360003373ffffffffffffffffffffffffffffffffffffffff1673ffffffffffffffffffffffffffffffffffffffff168152602001908152602001600020600101908051906020019061053e929190610f79565b5080600360003373ffffffffffffffffffffffffffffffffffffffff1673ffffffffffffffffffffffffffffffffffffffff1681526020019081526020016000206002019080519060200190610595929190610f79565b506001600360003373ffffffffffffffffffffffffffffffffffffffff1673ffffffffffffffffffffffffffffffffffffffff16815260200190815260200160002060030160006101000a81548160ff021916908315150217905550505050565b60056020528060005260406000206000915054906101000a900473ffffffffffffffffffffffffffffffffffffffff1681565b60008054906101000a900473ffffffffffffffffffffffffffffffffffffffff1673ffffffffffffffffffffffffffffffffffffffff163373ffffffffffffffffffffffffffffffffffffffff161461068157600080fd5b60008054906101000a900473ffffffffffffffffffffffffffffffffffffffff1673ffffffffffffffffffffffffffffffffffffffff166108fc479081150290604051600060405180830381858888f193505050501580156106e7573d6000803e3d6000fd5b50565b3373ffffffffffffffffffffffffffffffffffffffff166005600083815260200190815260200160002060009054906101000a900473ffffffffffffffffffffffffffffffffffffffff1673ffffffffffffffffffffffffffffffffffffffff161461075557600080fd5b6000600460003373ffffffffffffffffffffffffffffffffffffffff1673ffffffffffffffffffffffffffffffffffffffff168152602001908152602001600020905060008180549050905060005b8181101561083757838382815481106107c0576107bf611852565b5b90600052602060002090600302016002015403610824578281815481106107ea576107e9611852565b5b9060005260206000209060030201600080820160006108099190610fff565b6001820160006108199190610fff565b600282016000905550505b808061082f906118b0565b9150506107a4565b5081600460003373ffffffffffffffffffffffffffffffffffffffff1673ffffffffffffffffffffffffffffffffffffffff16815260200190815260200160002090805461088692919061103f565b50505050565b6000600360003373ffffffffffffffffffffffffffffffffffffffff1673ffffffffffffffffffffffffffffffffffffffff16815260200190815260200160002060030160009054906101000a900460ff16905090565b600460205281600052604060002081815481106108ff57600080fd5b90600052602060002090600302016000915091505080600001805461092390611821565b80601f016020809104026020016040519081016040528092919081815260200182805461094f90611821565b801561099c5780601f106109715761010080835404028352916020019161099c565b820191906000526020600020905b81548152906001019060200180831161097f57829003601f168201915b5050505050908060010180546109b190611821565b80601f01602080910402602001604051908101604052809291908181526020018280546109dd90611821565b8015610a2a5780601f106109ff57610100808354040283529160200191610a2a565b820191906000526020600020905b815481529060010190602001808311610a0d57829003601f168201915b5050505050908060020154905083565b803414610a4657600080fd5b60016000815480929190610a59906118b0565b91905055503360056000600154815260200190815260200160002060006101000a81548173ffffffffffffffffffffffffffffffffffffffff021916908373ffffffffffffffffffffffffffffffffffffffff16021790555050565b60008054906101000a900473ffffffffffffffffffffffffffffffffffffffff1681565b60008054906101000a900473ffffffffffffffffffffffffffffffffffffffff1673ffffffffffffffffffffffffffffffffffffffff163373ffffffffffffffffffffffffffffffffffffffff1614610b3157600080fd5b6000604051806080016040528085815260200184815260200183815260200160011515815250905080600285604051610b6a9190611934565b90815260200160405180910390206000820151816000019080519060200190610b94929190610f79565b506020820151816001019080519060200190610bb1929190610f79565b506040820151816002015560608201518160030160006101000a81548160ff02191690831515021790555090505050505050565b6003602052806000526040600020600091509050806000018054610c0890611821565b80601f0160208091040260200160405190810160405280929190818152602001828054610c3490611821565b8015610c815780601f10610c5657610100808354040283529160200191610c81565b820191906000526020600020905b815481529060010190602001808311610c6457829003601f168201915b505050505090806001018054610c9690611821565b80601f0160208091040260200160405190810160405280929190818152602001828054610cc290611821565b8015610d0f5780601f10610ce457610100808354040283529160200191610d0f565b820191906000526020600020905b815481529060010190602001808311610cf257829003601f168201915b505050505090806002018054610d2490611821565b80601f0160208091040260200160405190810160405280929190818152602001828054610d5090611821565b8015610d9d5780601f10610d7257610100808354040283529160200191610d9d565b820191906000526020600020905b815481529060010190602001808311610d8057829003601f168201915b5050505050908060030160009054906101000a900460ff16905084565b600360003373ffffffffffffffffffffffffffffffffffffffff1673ffffffffffffffffffffffffffffffffffffffff16815260200190815260200160002060030160009054906101000a900460ff1615610e1457600080fd5b82600360003373ffffffffffffffffffffffffffffffffffffffff1673ffffffffffffffffffffffffffffffffffffffff1681526020019081526020016000206000019080519060200190610e6a929190610f79565b5081600360003373ffffffffffffffffffffffffffffffffffffffff1673ffffffffffffffffffffffffffffffffffffffff1681526020019081526020016000206001019080519060200190610ec1929190610f79565b5080600360003373ffffffffffffffffffffffffffffffffffffffff1673ffffffffffffffffffffffffffffffffffffffff1681526020019081526020016000206002019080519060200190610f18929190610f79565b506001600360003373ffffffffffffffffffffffffffffffffffffffff1673ffffffffffffffffffffffffffffffffffffffff16815260200190815260200160002060030160006101000a81548160ff021916908315150217905550505050565b828054610f8590611821565b90600052602060002090601f016020900481019282610fa75760008555610fee565b82601f10610fc057805160ff1916838001178555610fee565b82800160010185558215610fee579182015b82811115610fed578251825591602001919060010190610fd2565b5b509050610ffb91906110e1565b5090565b50805461100b90611821565b6000825580601f1061101d575061103c565b601f01602090049060005260206000209081019061103b91906110e1565b5b50565b8280548282559060005260206000209060030281019282156110d05760005260206000209160030282015b828111156110cf578282600082018160000190805461108890611821565b6110939291906110fe565b5060018201816001019080546110a890611821565b6110b39291906110fe565b506002820154816002015550509160030191906003019061106a565b5b5090506110dd919061118b565b5090565b5b808211156110fa5760008160009055506001016110e2565b5090565b82805461110a90611821565b90600052602060002090601f01602090048101928261112c576000855561117a565b82601f1061113d578054855561117a565b8280016001018555821561117a57600052602060002091601f016020900482015b8281111561117957825482559160010191906001019061115e565b5b50905061118791906110e1565b5090565b5b808211156111c657600080820160006111a59190610fff565b6001820160006111b59190610fff565b60028201600090555060030161118c565b5090565b6000604051905090565b600080fd5b600080fd5b600080fd5b600080fd5b6000601f19601f8301169050919050565b7f4e487b7100000000000000000000000000000000000000000000000000000000600052604160045260246000fd5b611231826111e8565b810181811067ffffffffffffffff821117156112505761124f6111f9565b5b80604052505050565b60006112636111ca565b905061126f8282611228565b919050565b600067ffffffffffffffff82111561128f5761128e6111f9565b5b611298826111e8565b9050602081019050919050565b82818337600083830152505050565b60006112c76112c284611274565b611259565b9050828152602081018484840111156112e3576112e26111e3565b5b6112ee8482856112a5565b509392505050565b600082601f83011261130b5761130a6111de565b5b813561131b8482602086016112b4565b91505092915050565b60006020828403121561133a576113396111d4565b5b600082013567ffffffffffffffff811115611358576113576111d9565b5b611364848285016112f6565b91505092915050565b600081519050919050565b600082825260208201905092915050565b60005b838110156113a757808201518184015260208101905061138c565b838111156113b6576000848401525b50505050565b60006113c78261136d565b6113d18185611378565b93506113e1818560208601611389565b6113ea816111e8565b840191505092915050565b6000819050919050565b611408816113f5565b82525050565b60008115159050919050565b6114238161140e565b82525050565b6000608082019050818103600083015261144381876113bc565b9050818103602083015261145781866113bc565b905061146660408301856113ff565b611473606083018461141a565b95945050505050565b600080600060608486031215611495576114946111d4565b5b600084013567ffffffffffffffff8111156114b3576114b26111d9565b5b6114bf868287016112f6565b935050602084013567ffffffffffffffff8111156114e0576114df6111d9565b5b6114ec868287016112f6565b925050604084013567ffffffffffffffff81111561150d5761150c6111d9565b5b611519868287016112f6565b9150509250925092565b61152c816113f5565b811461153757600080fd5b50565b60008135905061154981611523565b92915050565b600060208284031215611565576115646111d4565b5b60006115738482850161153a565b91505092915050565b600073ffffffffffffffffffffffffffffffffffffffff82169050919050565b60006115a78261157c565b9050919050565b6115b78161159c565b82525050565b60006020820190506115d260008301846115ae565b92915050565b60006020820190506115ed600083018461141a565b92915050565b6115fc8161159c565b811461160757600080fd5b50565b600081359050611619816115f3565b92915050565b60008060408385031215611636576116356111d4565b5b60006116448582860161160a565b92505060206116558582860161153a565b9150509250929050565b6000606082019050818103600083015261167981866113bc565b9050818103602083015261168d81856113bc565b905061169c60408301846113ff565b949350505050565b60006116af8261157c565b9050919050565b6116bf816116a4565b82525050565b60006020820190506116da60008301846116b6565b92915050565b6000806000606084860312156116f9576116f86111d4565b5b600084013567ffffffffffffffff811115611717576117166111d9565b5b611723868287016112f6565b935050602084013567ffffffffffffffff811115611744576117436111d9565b5b611750868287016112f6565b92505060406117618682870161153a565b9150509250925092565b600060208284031215611781576117806111d4565b5b600061178f8482850161160a565b91505092915050565b600060808201905081810360008301526117b281876113bc565b905081810360208301526117c681866113bc565b905081810360408301526117da81856113bc565b90506117e9606083018461141a565b95945050505050565b7f4e487b7100000000000000000000000000000000000000000000000000000000600052602260045260246000fd5b6000600282049050600182168061183957607f821691505b60208210810361184c5761184b6117f2565b5b50919050565b7f4e487b7100000000000000000000000000000000000000000000000000000000600052603260045260246000fd5b7f4e487b7100000000000000000000000000000000000000000000000000000000600052601160045260246000fd5b60006118bb826113f5565b91507fffffffffffffffffffffffffffffffffffffffffffffffffffffffffffffffff82036118ed576118ec611881565b5b600182019050919050565b600081905092915050565b600061190e8261136d565b61191881856118f8565b9350611928818560208601611389565b80840191505092915050565b60006119408284611903565b91508190509291505056fea2646970667358221220a303c286bd3d396327cfd3c9773cea4734024b7bc73c2b06c6470c329ec3b38f64736f6c634300080d0033",
  "immutableReferences": {},
  "source": "// SPDX-License-Identifier:MIT\n\npragma solidity ^0.8.0;\n\ncontract Ecommerce_mob{\n    address payable public owner;\n    uint id=0;\n    constructor(){\n        owner = payable(msg.sender);\n    }\n    \n    struct user{\n        string name;\n        string email;\n        string deliveryAddress;\n        bool isCreated;\n    }\n\n    struct product{\n        string productId;\n        string productName;\n        uint price;\n        bool isActive;\n    }\n\n    struct orders{\n        string productId;\n        string orderStatus;\n        uint purchaseId;\n    }\n\n    mapping (string => product) public products;\n    mapping (address => user) public users;\n    mapping (address => orders[]) public userOrders;\n    mapping (uint => address) public orderBy;\n\n    function createProduct(string memory _productId,string memory _productName,uint _price) public{\n        require(msg.sender == owner);\n        product memory pro = product(_productId,_productName,_price,true);\n        products[_productId] = pro;\n    }\n    function withdraw() public{\n        require(msg.sender==owner);\n        owner.transfer(address(this).balance);\n    }\n    function createAccount(string memory _name,string memory _email,string memory _deliveryAddress) public {\n        require(!users[msg.sender].isCreated);\n        users[msg.sender].name = _name;\n        users[msg.sender].email = _email;\n        users[msg.sender].deliveryAddress = _deliveryAddress;\n        users[msg.sender].isCreated = true;\n    }\n\n    function changeDetails(string memory _name,string memory _email,string memory _deliveryAddress) public {\n        require(users[msg.sender].isCreated);\n        users[msg.sender].name = _name;\n        users[msg.sender].email = _email;\n        users[msg.sender].deliveryAddress = _deliveryAddress;\n        users[msg.sender].isCreated = true;\n    }\n\n    function get() public view returns(bool){\n        return users[msg.sender].isCreated;\n    }\n    function buyProduct(uint price) public payable{\n        // require(users[msg.sender].isCreated);\n        require(msg.value == price);\n        id++;\n        orderBy[id]=msg.sender;\n    }\n    function cancelOrder(uint _purchaseId) public{\n        require (orderBy[_purchaseId]==msg.sender);\n        orders[] storage temp = userOrders[msg.sender];\n        uint len = temp.length;\n        for(uint i=0;i<len;i++){\n            if(temp[i].purchaseId==_purchaseId){\n                delete temp[i];\n            }\n        }\n        userOrders[msg.sender]=temp;\n    }\n\n}",
  "sourcePath": "C:\\Users\\Dinesh\\Dapps\\Mobile_Store_Dapp\\contracts\\Ecommerce_mob.sol",
  "compiler": {
    "name": "solc",
    "version": "0.8.13+commit.abaa5c0e.Emscripten.clang"
  },
  "schemaVersion": "3.4.7",
  "updatedAt": "2022-04-19T15:59:16.059Z",
  "networkType": "ethereum",
  "devdoc": {
    "kind": "dev",
    "methods": {},
    "version": 1
  },
  "userdoc": {
    "kind": "user",
    "methods": {},
    "version": 1
  }
}